{
  "contractName": "Staking",
  "abi": [
    {
      "constant": true,
      "inputs": [],
      "name": "rewardRateDenom",
      "outputs": [
        {
          "name": "",
          "type": "uint256"
        }
      ],
      "payable": false,
      "stateMutability": "view",
      "type": "function"
    },
    {
      "constant": true,
      "inputs": [],
      "name": "punishmentRateNum",
      "outputs": [
        {
          "name": "",
          "type": "uint256"
        }
      ],
      "payable": false,
      "stateMutability": "view",
      "type": "function"
    },
    {
      "constant": true,
      "inputs": [],
      "name": "lowerThreshold",
      "outputs": [
        {
          "name": "",
          "type": "int256"
        }
      ],
      "payable": false,
      "stateMutability": "view",
      "type": "function"
    },
    {
      "constant": true,
      "inputs": [],
      "name": "upperThreshold",
      "outputs": [
        {
          "name": "",
          "type": "int256"
        }
      ],
      "payable": false,
      "stateMutability": "view",
      "type": "function"
    },
    {
      "constant": true,
      "inputs": [
        {
          "name": "",
          "type": "address"
        },
        {
          "name": "",
          "type": "address"
        }
      ],
      "name": "stake",
      "outputs": [
        {
          "name": "",
          "type": "int256"
        }
      ],
      "payable": false,
      "stateMutability": "view",
      "type": "function"
    },
    {
      "constant": true,
      "inputs": [],
      "name": "rewardRateNum",
      "outputs": [
        {
          "name": "",
          "type": "uint256"
        }
      ],
      "payable": false,
      "stateMutability": "view",
      "type": "function"
    },
    {
      "constant": true,
      "inputs": [
        {
          "name": "",
          "type": "address"
        }
      ],
      "name": "totalStake",
      "outputs": [
        {
          "name": "",
          "type": "int256"
        }
      ],
      "payable": false,
      "stateMutability": "view",
      "type": "function"
    },
    {
      "constant": true,
      "inputs": [],
      "name": "punishmentRateDenom",
      "outputs": [
        {
          "name": "",
          "type": "uint256"
        }
      ],
      "payable": false,
      "stateMutability": "view",
      "type": "function"
    },
    {
      "inputs": [
        {
          "name": "tokenContractAddr",
          "type": "address"
        },
        {
          "name": "vaultContractAddr",
          "type": "address"
        }
      ],
      "payable": false,
      "stateMutability": "nonpayable",
      "type": "constructor"
    },
    {
      "anonymous": false,
      "inputs": [
        {
          "indexed": true,
          "name": "_candidate",
          "type": "address"
        },
        {
          "indexed": true,
          "name": "_voter",
          "type": "address"
        },
        {
          "indexed": false,
          "name": "_value",
          "type": "int256"
        }
      ],
      "name": "Vote",
      "type": "event"
    },
    {
      "anonymous": false,
      "inputs": [
        {
          "indexed": true,
          "name": "_candidate",
          "type": "address"
        },
        {
          "indexed": false,
          "name": "voted",
          "type": "bool"
        }
      ],
      "name": "VoteConcluded",
      "type": "event"
    },
    {
      "constant": false,
      "inputs": [
        {
          "name": "_candidate",
          "type": "address"
        },
        {
          "name": "_value",
          "type": "int256"
        }
      ],
      "name": "setStake",
      "outputs": [],
      "payable": false,
      "stateMutability": "nonpayable",
      "type": "function"
    },
    {
      "constant": false,
      "inputs": [
        {
          "name": "_candidate",
          "type": "address"
        }
      ],
      "name": "cancelStake",
      "outputs": [],
      "payable": false,
      "stateMutability": "nonpayable",
      "type": "function"
    },
    {
      "constant": false,
      "inputs": [
        {
          "name": "value",
          "type": "int256"
        }
      ],
      "name": "setUpperThreshold",
      "outputs": [],
      "payable": false,
      "stateMutability": "nonpayable",
      "type": "function"
    },
    {
      "constant": false,
      "inputs": [
        {
          "name": "value",
          "type": "int256"
        }
      ],
      "name": "setLowerThreshold",
      "outputs": [],
      "payable": false,
      "stateMutability": "nonpayable",
      "type": "function"
    },
    {
      "constant": false,
      "inputs": [
        {
          "name": "value",
          "type": "uint256"
        }
      ],
      "name": "setRewardRateNum",
      "outputs": [],
      "payable": false,
      "stateMutability": "nonpayable",
      "type": "function"
    },
    {
      "constant": false,
      "inputs": [
        {
          "name": "value",
          "type": "uint256"
        }
      ],
      "name": "setRewardRateDenom",
      "outputs": [],
      "payable": false,
      "stateMutability": "nonpayable",
      "type": "function"
    },
    {
      "constant": false,
      "inputs": [
        {
          "name": "value",
          "type": "uint256"
        }
      ],
      "name": "setPunishmentRateNum",
      "outputs": [],
      "payable": false,
      "stateMutability": "nonpayable",
      "type": "function"
    },
    {
      "constant": false,
      "inputs": [
        {
          "name": "value",
          "type": "uint256"
        }
      ],
      "name": "setPunishmentRateDenom",
      "outputs": [],
      "payable": false,
      "stateMutability": "nonpayable",
      "type": "function"
    }
  ],
  "bytecode": "0x608060405234801561001057600080fd5b506040516040806122448339810180604052604081101561003057600080fd5b810190808051906020019092919080519060200190929190505050336000806101000a81548173ffffffffffffffffffffffffffffffffffffffff021916908373ffffffffffffffffffffffffffffffffffffffff160217905550620186a06003819055507ffffffffffffffffffffffffffffffffffffffffffffffffffffffffffffe796060048190555060016005819055506103e860068190555060016007819055506103e860088190555081600160006101000a81548173ffffffffffffffffffffffffffffffffffffffff021916908373ffffffffffffffffffffffffffffffffffffffff160217905550600160009054906101000a900473ffffffffffffffffffffffffffffffffffffffff1673ffffffffffffffffffffffffffffffffffffffff1663bae88d5b306040518263ffffffff1660e01b8152600401808273ffffffffffffffffffffffffffffffffffffffff1673ffffffffffffffffffffffffffffffffffffffff168152602001915050600060405180830381600087803b1580156101c057600080fd5b505af11580156101d4573d6000803e3d6000fd5b5050505080600260006101000a81548173ffffffffffffffffffffffffffffffffffffffff021916908373ffffffffffffffffffffffffffffffffffffffff160217905550600260009054906101000a900473ffffffffffffffffffffffffffffffffffffffff1673ffffffffffffffffffffffffffffffffffffffff1663bae88d5b306040518263ffffffff1660e01b8152600401808273ffffffffffffffffffffffffffffffffffffffff1673ffffffffffffffffffffffffffffffffffffffff168152602001915050600060405180830381600087803b1580156102ba57600080fd5b505af11580156102ce573d6000803e3d6000fd5b505050505050611f61806102e36000396000f3fe608060405234801561001057600080fd5b50600436106101005760003560e01c8063808615ac11610097578063b273fc9a11610066578063b273fc9a14610347578063c68e4c251461039f578063e064172e146103cd578063e099ffdc1461041157610100565b8063808615ac146102355780638141b132146102ad57806392a4fe50146102fb578063a87ad8cf1461031957610100565b806354652ef4116100d357806354652ef4146101ad5780635cd0935d146101cb57806366d7e982146101f957806373fe5a001461021757610100565b80632d6d069f1461010557806332b5d01a14610133578063434a56f614610151578063529d27101461017f575b600080fd5b6101316004803603602081101561011b57600080fd5b810190808035906020019092919050505061042f565b005b61013b6104fb565b6040518082815260200191505060405180910390f35b61017d6004803603602081101561016757600080fd5b8101908080359060200190929190505050610501565b005b6101ab6004803603602081101561019557600080fd5b81019080803590602001909291905050506105cd565b005b6101b5610699565b6040518082815260200191505060405180910390f35b6101f7600480360360208110156101e157600080fd5b810190808035906020019092919050505061069f565b005b61020161076b565b6040518082815260200191505060405180910390f35b61021f610771565b6040518082815260200191505060405180910390f35b6102976004803603604081101561024b57600080fd5b81019080803573ffffffffffffffffffffffffffffffffffffffff169060200190929190803573ffffffffffffffffffffffffffffffffffffffff169060200190929190505050610777565b6040518082815260200191505060405180910390f35b6102f9600480360360408110156102c357600080fd5b81019080803573ffffffffffffffffffffffffffffffffffffffff1690602001909291908035906020019092919050505061079c565b005b610303610e1c565b6040518082815260200191505060405180910390f35b6103456004803603602081101561032f57600080fd5b8101908080359060200190929190505050610e22565b005b6103896004803603602081101561035d57600080fd5b81019080803573ffffffffffffffffffffffffffffffffffffffff169060200190929190505050610eee565b6040518082815260200191505060405180910390f35b6103cb600480360360208110156103b557600080fd5b8101908080359060200190929190505050610f06565b005b61040f600480360360208110156103e357600080fd5b81019080803573ffffffffffffffffffffffffffffffffffffffff169060200190929190505050610fd2565b005b610419611440565b6040518082815260200191505060405180910390f35b6000809054906101000a900473ffffffffffffffffffffffffffffffffffffffff1673ffffffffffffffffffffffffffffffffffffffff163373ffffffffffffffffffffffffffffffffffffffff16146104f1576040517f08c379a00000000000000000000000000000000000000000000000000000000081526004018080602001828103825260158152602001807f596f75277265206e6f7420617574686f72697a6564000000000000000000000081525060200191505060405180910390fd5b8060038190555050565b60065481565b6000809054906101000a900473ffffffffffffffffffffffffffffffffffffffff1673ffffffffffffffffffffffffffffffffffffffff163373ffffffffffffffffffffffffffffffffffffffff16146105c3576040517f08c379a00000000000000000000000000000000000000000000000000000000081526004018080602001828103825260158152602001807f596f75277265206e6f7420617574686f72697a6564000000000000000000000081525060200191505060405180910390fd5b8060068190555050565b6000809054906101000a900473ffffffffffffffffffffffffffffffffffffffff1673ffffffffffffffffffffffffffffffffffffffff163373ffffffffffffffffffffffffffffffffffffffff161461068f576040517f08c379a00000000000000000000000000000000000000000000000000000000081526004018080602001828103825260158152602001807f596f75277265206e6f7420617574686f72697a6564000000000000000000000081525060200191505060405180910390fd5b8060088190555050565b60075481565b6000809054906101000a900473ffffffffffffffffffffffffffffffffffffffff1673ffffffffffffffffffffffffffffffffffffffff163373ffffffffffffffffffffffffffffffffffffffff1614610761576040517f08c379a00000000000000000000000000000000000000000000000000000000081526004018080602001828103825260158152602001807f596f75277265206e6f7420617574686f72697a6564000000000000000000000081525060200191505060405180910390fd5b8060058190555050565b60045481565b60035481565b6009602052816000526040600020602052806000526040600020600091509150505481565b600073ffffffffffffffffffffffffffffffffffffffff168273ffffffffffffffffffffffffffffffffffffffff16141561083f576040517f08c379a000000000000000000000000000000000000000000000000000000000815260040180806020018281038252600f8152602001807f496e76616c69642061646472657373000000000000000000000000000000000081525060200191505060405180910390fd5b3373ffffffffffffffffffffffffffffffffffffffff168273ffffffffffffffffffffffffffffffffffffffff1614156108e1576040517f08c379a000000000000000000000000000000000000000000000000000000000815260040180806020018281038252600f8152602001807f496e76616c69642061646472657373000000000000000000000000000000000081525060200191505060405180910390fd5b600160028111156108ee57fe5b600260009054906101000a900473ffffffffffffffffffffffffffffffffffffffff1673ffffffffffffffffffffffffffffffffffffffff1663958e092a846040518263ffffffff1660e01b8152600401808273ffffffffffffffffffffffffffffffffffffffff1673ffffffffffffffffffffffffffffffffffffffff16815260200191505060206040518083038186803b15801561098d57600080fd5b505afa1580156109a1573d6000803e3d6000fd5b505050506040513d60208110156109b757600080fd5b810190808051906020019092919050505060028111156109d357fe5b14610a29576040517f08c379a0000000000000000000000000000000000000000000000000000000008152600401808060200182810382526023815260200180611f136023913960400191505060405180910390fd5b6000600960008473ffffffffffffffffffffffffffffffffffffffff1673ffffffffffffffffffffffffffffffffffffffff16815260200190815260200160002060003373ffffffffffffffffffffffffffffffffffffffff1673ffffffffffffffffffffffffffffffffffffffff1681526020019081526020016000205414610b1b576040517f08c379a00000000000000000000000000000000000000000000000000000000081526004018080602001828103825260148152602001807f596f7527766520616c726561647920766f74656400000000000000000000000081525060200191505060405180910390fd5b600b60008373ffffffffffffffffffffffffffffffffffffffff1673ffffffffffffffffffffffffffffffffffffffff1681526020019081526020016000203390806001815401808255809150509060018203906000526020600020016000909192909190916101000a81548173ffffffffffffffffffffffffffffffffffffffff021916908373ffffffffffffffffffffffffffffffffffffffff1602179055505080600a60008473ffffffffffffffffffffffffffffffffffffffff1673ffffffffffffffffffffffffffffffffffffffff16815260200190815260200160002060008282540192505081905550600160009054906101000a900473ffffffffffffffffffffffffffffffffffffffff1673ffffffffffffffffffffffffffffffffffffffff166323b872dd336000809054906101000a900473ffffffffffffffffffffffffffffffffffffffff16610c7585611446565b6040518463ffffffff1660e01b8152600401808473ffffffffffffffffffffffffffffffffffffffff1673ffffffffffffffffffffffffffffffffffffffff1681526020018373ffffffffffffffffffffffffffffffffffffffff1673ffffffffffffffffffffffffffffffffffffffff1681526020018281526020019350505050600060405180830381600087803b158015610d1157600080fd5b505af1158015610d25573d6000803e3d6000fd5b5050505080600960008473ffffffffffffffffffffffffffffffffffffffff1673ffffffffffffffffffffffffffffffffffffffff16815260200190815260200160002060003373ffffffffffffffffffffffffffffffffffffffff1673ffffffffffffffffffffffffffffffffffffffff16815260200190815260200160002081905550610db382611464565b3373ffffffffffffffffffffffffffffffffffffffff168273ffffffffffffffffffffffffffffffffffffffff167f79a02325cb94513a3505278348f98ec59be59bfe1bd80376ae39c5917247463f836040518082815260200191505060405180910390a35050565b60055481565b6000809054906101000a900473ffffffffffffffffffffffffffffffffffffffff1673ffffffffffffffffffffffffffffffffffffffff163373ffffffffffffffffffffffffffffffffffffffff1614610ee4576040517f08c379a00000000000000000000000000000000000000000000000000000000081526004018080602001828103825260158152602001807f596f75277265206e6f7420617574686f72697a6564000000000000000000000081525060200191505060405180910390fd5b8060078190555050565b600a6020528060005260406000206000915090505481565b6000809054906101000a900473ffffffffffffffffffffffffffffffffffffffff1673ffffffffffffffffffffffffffffffffffffffff163373ffffffffffffffffffffffffffffffffffffffff1614610fc8576040517f08c379a00000000000000000000000000000000000000000000000000000000081526004018080602001828103825260158152602001807f596f75277265206e6f7420617574686f72697a6564000000000000000000000081525060200191505060405180910390fd5b8060048190555050565b6000611059600960008473ffffffffffffffffffffffffffffffffffffffff1673ffffffffffffffffffffffffffffffffffffffff16815260200190815260200160002060003373ffffffffffffffffffffffffffffffffffffffff1673ffffffffffffffffffffffffffffffffffffffff16815260200190815260200160002054611446565b9050600160009054906101000a900473ffffffffffffffffffffffffffffffffffffffff1673ffffffffffffffffffffffffffffffffffffffff166323b872dd6000809054906101000a900473ffffffffffffffffffffffffffffffffffffffff1633846040518463ffffffff1660e01b8152600401808473ffffffffffffffffffffffffffffffffffffffff1673ffffffffffffffffffffffffffffffffffffffff1681526020018373ffffffffffffffffffffffffffffffffffffffff1673ffffffffffffffffffffffffffffffffffffffff1681526020018281526020019350505050600060405180830381600087803b15801561115957600080fd5b505af115801561116d573d6000803e3d6000fd5b50505050600960008373ffffffffffffffffffffffffffffffffffffffff1673ffffffffffffffffffffffffffffffffffffffff16815260200190815260200160002060003373ffffffffffffffffffffffffffffffffffffffff1673ffffffffffffffffffffffffffffffffffffffff16815260200190815260200160002054600a60008473ffffffffffffffffffffffffffffffffffffffff1673ffffffffffffffffffffffffffffffffffffffff16815260200190815260200160002060008282540392505081905550600960008373ffffffffffffffffffffffffffffffffffffffff1673ffffffffffffffffffffffffffffffffffffffff16815260200190815260200160002060003373ffffffffffffffffffffffffffffffffffffffff1673ffffffffffffffffffffffffffffffffffffffff1681526020019081526020016000206000905560008090505b600b60008473ffffffffffffffffffffffffffffffffffffffff1673ffffffffffffffffffffffffffffffffffffffff1681526020019081526020016000208054905081101561143b573373ffffffffffffffffffffffffffffffffffffffff16600b60008573ffffffffffffffffffffffffffffffffffffffff1673ffffffffffffffffffffffffffffffffffffffff168152602001908152602001600020828154811061136b57fe5b9060005260206000200160009054906101000a900473ffffffffffffffffffffffffffffffffffffffff1673ffffffffffffffffffffffffffffffffffffffff16141561142e57600b60008473ffffffffffffffffffffffffffffffffffffffff1673ffffffffffffffffffffffffffffffffffffffff16815260200190815260200160002081815481106113fc57fe5b9060005260206000200160006101000a81549073ffffffffffffffffffffffffffffffffffffffff021916905561143b565b80806001019150506112c0565b505050565b60085481565b60008082121561145b5781600003905061145f565b8190505b919050565b600354600a60008373ffffffffffffffffffffffffffffffffffffffff1673ffffffffffffffffffffffffffffffffffffffff168152602001908152602001600020541215806114f55750600454600a60008373ffffffffffffffffffffffffffffffffffffffff1673ffffffffffffffffffffffffffffffffffffffff1681526020019081526020016000205413155b1561166a576000600354600a60008473ffffffffffffffffffffffffffffffffffffffff1673ffffffffffffffffffffffffffffffffffffffff1681526020019081526020016000205412159050801561160357600260009054906101000a900473ffffffffffffffffffffffffffffffffffffffff1673ffffffffffffffffffffffffffffffffffffffff1663bbdfa00e836040518263ffffffff1660e01b8152600401808273ffffffffffffffffffffffffffffffffffffffff1673ffffffffffffffffffffffffffffffffffffffff168152602001915050600060405180830381600087803b1580156115ea57600080fd5b505af11580156115fe573d6000803e3d6000fd5b505050505b61160d828261166d565b61161682611acf565b8173ffffffffffffffffffffffffffffffffffffffff167ff03901134018e173e1733d2ceb5b35ee59b0d3beae25c083973abbe294ae854f82604051808215151515815260200191505060405180910390a2505b50565b60008090505b600b60008473ffffffffffffffffffffffffffffffffffffffff1673ffffffffffffffffffffffffffffffffffffffff16815260200190815260200160002080549050811015611aca576000600b60008573ffffffffffffffffffffffffffffffffffffffff1673ffffffffffffffffffffffffffffffffffffffff168152602001908152602001600020828154811061170957fe5b9060005260206000200160009054906101000a900473ffffffffffffffffffffffffffffffffffffffff169050600080600960008773ffffffffffffffffffffffffffffffffffffffff1673ffffffffffffffffffffffffffffffffffffffff16815260200190815260200160002060008473ffffffffffffffffffffffffffffffffffffffff1673ffffffffffffffffffffffffffffffffffffffff168152602001908152602001600020541390506000611840600960008873ffffffffffffffffffffffffffffffffffffffff1673ffffffffffffffffffffffffffffffffffffffff16815260200190815260200160002060008573ffffffffffffffffffffffffffffffffffffffff1673ffffffffffffffffffffffffffffffffffffffff16815260200190815260200160002054611446565b9050600085801561184e5750825b80611861575085158015611860575082155b5b9050801561199357600160009054906101000a900473ffffffffffffffffffffffffffffffffffffffff1673ffffffffffffffffffffffffffffffffffffffff166323b872dd6000809054906101000a900473ffffffffffffffffffffffffffffffffffffffff16866006548660055402816118d957fe5b046040518463ffffffff1660e01b8152600401808473ffffffffffffffffffffffffffffffffffffffff1673ffffffffffffffffffffffffffffffffffffffff1681526020018373ffffffffffffffffffffffffffffffffffffffff1673ffffffffffffffffffffffffffffffffffffffff1681526020018281526020019350505050600060405180830381600087803b15801561197657600080fd5b505af115801561198a573d6000803e3d6000fd5b50505050611ab9565b600160009054906101000a900473ffffffffffffffffffffffffffffffffffffffff1673ffffffffffffffffffffffffffffffffffffffff166323b872dd856000809054906101000a900473ffffffffffffffffffffffffffffffffffffffff16600854866007540281611a0357fe5b046040518463ffffffff1660e01b8152600401808473ffffffffffffffffffffffffffffffffffffffff1673ffffffffffffffffffffffffffffffffffffffff1681526020018373ffffffffffffffffffffffffffffffffffffffff1673ffffffffffffffffffffffffffffffffffffffff1681526020018281526020019350505050600060405180830381600087803b158015611aa057600080fd5b505af1158015611ab4573d6000803e3d6000fd5b505050505b505050508080600101915050611673565b505050565b600a60008273ffffffffffffffffffffffffffffffffffffffff1673ffffffffffffffffffffffffffffffffffffffff1681526020019081526020016000206000905560008090505b600b60008373ffffffffffffffffffffffffffffffffffffffff1673ffffffffffffffffffffffffffffffffffffffff16815260200190815260200160002080549050811015611e7d576000600b60008473ffffffffffffffffffffffffffffffffffffffff1673ffffffffffffffffffffffffffffffffffffffff1681526020019081526020016000208281548110611bae57fe5b9060005260206000200160009054906101000a900473ffffffffffffffffffffffffffffffffffffffff1690506000611c62600960008673ffffffffffffffffffffffffffffffffffffffff1673ffffffffffffffffffffffffffffffffffffffff16815260200190815260200160002060008473ffffffffffffffffffffffffffffffffffffffff1673ffffffffffffffffffffffffffffffffffffffff16815260200190815260200160002054611446565b9050600160009054906101000a900473ffffffffffffffffffffffffffffffffffffffff1673ffffffffffffffffffffffffffffffffffffffff166323b872dd6000809054906101000a900473ffffffffffffffffffffffffffffffffffffffff1684846040518463ffffffff1660e01b8152600401808473ffffffffffffffffffffffffffffffffffffffff1673ffffffffffffffffffffffffffffffffffffffff1681526020018373ffffffffffffffffffffffffffffffffffffffff1673ffffffffffffffffffffffffffffffffffffffff1681526020018281526020019350505050600060405180830381600087803b158015611d6257600080fd5b505af1158015611d76573d6000803e3d6000fd5b50505050600960008573ffffffffffffffffffffffffffffffffffffffff1673ffffffffffffffffffffffffffffffffffffffff1681526020019081526020016000206000600b60008773ffffffffffffffffffffffffffffffffffffffff1673ffffffffffffffffffffffffffffffffffffffff1681526020019081526020016000208581548110611e0557fe5b9060005260206000200160009054906101000a900473ffffffffffffffffffffffffffffffffffffffff1673ffffffffffffffffffffffffffffffffffffffff1673ffffffffffffffffffffffffffffffffffffffff1681526020019081526020016000206000905550508080600101915050611b18565b50600b60008273ffffffffffffffffffffffffffffffffffffffff1673ffffffffffffffffffffffffffffffffffffffff1681526020019081526020016000206000611ec99190611ecc565b50565b5080546000825590600052602060002090810190611eea9190611eed565b50565b611f0f91905b80821115611f0b576000816000905550600101611ef3565b5090565b9056fe5468652063616e6469646174652069736e27742061736b696e6720616e7920766f7465a165627a7a7230582059675574817d28c132ac6550c65e82afda9ec74b0bc81b2ee7dfbb890f25d79b0029",
  "source": "pragma solidity >=0.4.25 <0.6.0;\n\nimport './TrstToken.sol';\nimport './Vault.sol';\n\n/**\n@author Senapati Sang Diwangkara, from Affluent team\n\n@title The Staking Contract\n\nStaking is a contract that handles the voting part of the Clint system. It also\nprovides the means for administrator to set reward and punishment rate of the\ncorrect/false stake\n\nThe logic in this contract is inspired by ERC-20's delegated transfer mechanism,\nwhere voter -> spender and candidate -> owner\n\nAmong the 3 contracts, this contract must be deployed last, because it depends on the\nother two contracts.\n*/\ncontract Staking {\n\taddress root;\n\tTrstToken tokenContract;\n\tVault vaultContract;\n\n\tint public upperThreshold; // How much mTrst untill liquidation?\n\tint public lowerThreshold; // How much mTrst untill cancellation?\n\tuint public rewardRateNum;\n\tuint public rewardRateDenom;\n\tuint public punishmentRateNum;\n\tuint public punishmentRateDenom;\n\n\t/**\n\t* @dev A variable that states how much a voter has staked for a given candidate\n\t* Accessed by stake[candidate][voter]\n\t* In ERC-20, this is called `_allowed`\n\t*/\n\tmapping (address => mapping (address => int256)) public stake;\n\tmapping (address => int256) public totalStake;\n\tmapping (address => address[]) private stakers;\n\n\tconstructor(address payable tokenContractAddr, address payable vaultContractAddr) public {\n\t\troot = msg.sender;\n\n\t\tupperThreshold = 100000;\n\t\tlowerThreshold = -100000;\n\n\t\trewardRateNum = 1;\n\t\trewardRateDenom = 1000; // 1 mTrst rewarded for every Trst staked\n\t\tpunishmentRateNum = 1;\n\t\tpunishmentRateDenom = 1000;\n\n\t\ttokenContract = TrstToken(tokenContractAddr);\n\t\ttokenContract.setStakeContractAddr(address(this));\n\t\tvaultContract = Vault(vaultContractAddr);\n\t\tvaultContract.setStakeContractAddr(address(this));\n\t}\n\n\n\n\t// *** Modifiers ***\n\tmodifier onlyRoot() {\n\t\trequire(msg.sender == root, \"You're not authorized\");\n\t\t_;\n\t}\n\n\n\n\t// *** Events ***\n\tevent Vote(address indexed _candidate, address indexed _voter, int256 _value);\n\tevent VoteConcluded(address indexed _candidate, bool voted);\n\n\n\n\t// *** Operation Methods ***\n\t/**\n\t* @dev Set the stake that a voter will vouch for a candidate\n\t*\tIn ERC-20, this is called `allowed` and instead of owner, spender will be set as input\n\t* \tNOTE: prevent race condition by setting the _value to 0 first before\n\t* \tsetting it to the value we want. This must be done in the frontend.\n\t* @param _candidate The address whose voter stake to\n\t* @param _value The amount of stake\n\t*/\n\tfunction setStake(address payable _candidate, int256 _value) external {\n\t\trequire(_candidate != address(0), \"Invalid address\");\n\t\trequire(_candidate != msg.sender, \"Invalid address\");\n\t\trequire(vaultContract.loanStatus(_candidate) == Vault.LoanStatus.PROPOSED, \"The candidate isn't asking any vote\");\n\t\trequire(stake[_candidate][msg.sender] == 0, \"You've already voted\");\n\t\t// TODO: clamp mechanism\n\n\t\tstakers[_candidate].push(msg.sender);\n\n\t\t// Move balance accordingly\n\t\ttotalStake[_candidate] += _value;\n\t\ttokenContract.transferFrom(msg.sender, root, _abs(_value));\n\t\tstake[_candidate][msg.sender] = _value;\n\n\t\t// Act if trust threshold exceeded\n\t\t_checkBallot(_candidate);\n\n\t\temit Vote(_candidate, msg.sender, _value);\n\t}\n\n\t/**\n\t* @dev Cancel the sender's stake on a candidate\n\t* @param _candidate The address whom the sender staked to\n\t*/\n\tfunction cancelStake(address _candidate) external {\n\t\tuint256 absStake = _abs(stake[_candidate][msg.sender]);\n\n\t\ttokenContract.transferFrom(root, msg.sender, absStake);\n\n\t\ttotalStake[_candidate] -= stake[_candidate][msg.sender];\n\t\tdelete stake[_candidate][msg.sender];\n\n\t\tfor (uint i = 0; i < stakers[_candidate].length; i++) {\n\t\t\tif (stakers[_candidate][i] == msg.sender) {\n\t\t\t\tdelete stakers[_candidate][i];\n\t\t\t\tbreak;\n\t\t\t}\n\t\t}\n\t}\n\n\n\n\t// *** Administrative Methods ***\n\t/**\n\t* @dev Set the total stake's upper threshold. Can only be called by root\n\t* @param value New upperThreshold value\n\t*/\n\tfunction setUpperThreshold(int value) external onlyRoot {\n\t\tupperThreshold = value;\n\t}\n\n\t/**\n\t* @dev Set the total stake's lower threshold. Can only be called by root\n\t* @param value New lowerThreshold value\n\t*/\n\tfunction setLowerThreshold(int value) external onlyRoot {\n\t\tlowerThreshold = value;\n\t}\n\n\t/**\n\t* @dev Set the reward rate's numerator. Can only be called by root\n\t* @param value New rewardRateNum value\n\t*/\n\tfunction setRewardRateNum(uint value) external onlyRoot {\n\t\trewardRateNum = value;\n\t}\n\n\t/**\n\t* @dev Set the reward rate's denominator. Can only be called by root\n\t* @param value New rewardRateDenom value\n\t*/\n\tfunction setRewardRateDenom(uint value) external onlyRoot {\n\t\trewardRateDenom = value;\n\t}\n\n\t/**\n\t* @dev Set the punishment rate's numerator. Can only be called by root\n\t* @param value New punishmentRateNum value\n\t*/\n\tfunction setPunishmentRateNum(uint value) external onlyRoot {\n\t\tpunishmentRateNum = value;\n\t}\n\n\t/**\n\t* @dev Set the punishment rate's denominator. Can only be called by root\n\t* @param value New punishmentRateDenom value\n\t*/\n\tfunction setPunishmentRateDenom(uint value) external onlyRoot {\n\t\tpunishmentRateDenom = value;\n\t}\n\n\n\n\t// *** Internal Methods ***\n\t/**\n\t* @dev Check whether the votes are sufficient or not\n\t* @param _candidate The candidate who will be checked\n\t*/\n\tfunction _checkBallot(address payable _candidate) private {\n\t\tif (totalStake[_candidate] >= upperThreshold || totalStake[_candidate] <= lowerThreshold) {\n\t\t\tbool voted = totalStake[_candidate] >= upperThreshold;\n\n\t\t\t// Liquidate loan\n\t\t\tif (voted) {\n\t\t\t\tvaultContract.liquidateLoan(_candidate);\n\t\t\t}\n\n\t\t\t_giveIncentive(_candidate, voted);\n\t\t\t_resetAllStakesOn(_candidate);\n\n\t\t\temit VoteConcluded(_candidate, voted);\n\t\t}\n\t}\n\n\t/**\n\t* @dev Give incentive to the voters that voted for a candidate\n\t* @param _candidate The candidate whose voters will be acted upon\n\t* @param voted Whether the loan is successful or not\n\t*/\n\tfunction _giveIncentive(address _candidate, bool voted) private {\n\t\tfor (uint i = 0; i < stakers[_candidate].length; i++) {\n\t\t\taddress staker = stakers[_candidate][i];\n\t\t\tbool isYes = stake[_candidate][staker] > 0;\n\t\t\tuint256 absStake = _abs(stake[_candidate][staker]);\n\n\t\t\tbool reward = (voted && isYes) || (!voted && !isYes); // XNOR\n\t\t\t// reward the yes, punish the no\n\t\t\tif (reward) {\n\t\t\t\ttokenContract.transferFrom(root, staker, rewardRateNum * absStake / rewardRateDenom);\n\t\t\t} else {\n\t\t\t\ttokenContract.transferFrom(staker, root, punishmentRateNum * absStake / punishmentRateDenom);\n\t\t\t}\n\t\t}\n\t}\n\n\t/**\n\t* @dev Reset all the stake that has been staked for a candidate\n\t* @param _candidate The candidate whose voters will be reseted\n\t*/\n\tfunction _resetAllStakesOn(address _candidate) private {\n\t\tdelete totalStake[_candidate];\n\t\tfor (uint i = 0; i < stakers[_candidate].length; i++) {\n\t\t\taddress staker = stakers[_candidate][i];\n\t\t\tuint256 absStake = _abs(stake[_candidate][staker]);\n\t\t\ttokenContract.transferFrom(root, staker, absStake);\n\n\t\t\tdelete stake[_candidate][stakers[_candidate][i]];\n\t\t}\n\t\tdelete stakers[_candidate];\n\t}\n\n\t/**\n\t* @dev Convert int to uint in an absolute manner\n\t* @param signed int value\n\t* @return uint value\n\t*/\n\tfunction _abs(int signed) private pure returns (uint) {\n\t\tif (signed < 0) {\n\t\t\treturn uint(-signed);\n\t\t} else {\n\t\t\treturn uint(signed);\n\t\t}\n\t}\n}",
  "sourcePath": "/Users/hafizhbudiman/Documents/Competitions/Finhacks/code/clint-dapp/contracts/Staking.sol",
  "compiler": {
    "name": "solc",
    "version": "0.5.8+commit.23d335f2.Emscripten.clang"
  },
  "schemaVersion": "3.0.17",
  "updatedAt": "2019-11-12T08:52:47.000Z",
  "networkType": "ethereum",
  "devdoc": {
    "author": "Senapati Sang Diwangkara, from Affluent team",
    "methods": {
      "cancelStake(address)": {
        "details": "Cancel the sender's stake on a candidate",
        "params": {
          "_candidate": "The address whom the sender staked to"
        }
      },
      "setLowerThreshold(int256)": {
        "details": "Set the total stake's lower threshold. Can only be called by root",
        "params": {
          "value": "New lowerThreshold value"
        }
      },
      "setPunishmentRateDenom(uint256)": {
        "details": "Set the punishment rate's denominator. Can only be called by root",
        "params": {
          "value": "New punishmentRateDenom value"
        }
      },
      "setPunishmentRateNum(uint256)": {
        "details": "Set the punishment rate's numerator. Can only be called by root",
        "params": {
          "value": "New punishmentRateNum value"
        }
      },
      "setRewardRateDenom(uint256)": {
        "details": "Set the reward rate's denominator. Can only be called by root",
        "params": {
          "value": "New rewardRateDenom value"
        }
      },
      "setRewardRateNum(uint256)": {
        "details": "Set the reward rate's numerator. Can only be called by root",
        "params": {
          "value": "New rewardRateNum value"
        }
      },
      "setStake(address,int256)": {
        "details": "Set the stake that a voter will vouch for a candidate In ERC-20, this is called `allowed` and instead of owner, spender will be set as input\tNOTE: prevent race condition by setting the _value to 0 first before\tsetting it to the value we want. This must be done in the frontend.",
        "params": {
          "_candidate": "The address whose voter stake to",
          "_value": "The amount of stake"
        }
      },
      "setUpperThreshold(int256)": {
        "details": "Set the total stake's upper threshold. Can only be called by root",
        "params": {
          "value": "New upperThreshold value"
        }
      }
    },
    "title": "The Staking Contract Staking is a contract that handles the voting part of the Clint system. It also provides the means for administrator to set reward and punishment rate of the correct/false stake The logic in this contract is inspired by ERC-20's delegated transfer mechanism, where voter -> spender and candidate -> owner Among the 3 contracts, this contract must be deployed last, because it depends on the other two contracts."
  },
  "userdoc": {
    "methods": {}
  }
}