{
  "contractName": "Vault",
  "abi": [
    {
      "constant": true,
      "inputs": [
        {
          "name": "",
          "type": "address"
        }
      ],
      "name": "term",
      "outputs": [
        {
          "name": "",
          "type": "uint256"
        }
      ],
      "payable": false,
      "stateMutability": "view",
      "type": "function"
    },
    {
      "constant": true,
      "inputs": [],
      "name": "interestRateNum",
      "outputs": [
        {
          "name": "",
          "type": "uint256"
        }
      ],
      "payable": false,
      "stateMutability": "view",
      "type": "function"
    },
    {
      "constant": true,
      "inputs": [
        {
          "name": "",
          "type": "address"
        }
      ],
      "name": "lentTimestamp",
      "outputs": [
        {
          "name": "",
          "type": "uint256"
        }
      ],
      "payable": false,
      "stateMutability": "view",
      "type": "function"
    },
    {
      "constant": true,
      "inputs": [],
      "name": "interestRateDenom",
      "outputs": [
        {
          "name": "",
          "type": "uint256"
        }
      ],
      "payable": false,
      "stateMutability": "view",
      "type": "function"
    },
    {
      "constant": true,
      "inputs": [
        {
          "name": "",
          "type": "address"
        }
      ],
      "name": "proposedLoan",
      "outputs": [
        {
          "name": "",
          "type": "uint256"
        }
      ],
      "payable": false,
      "stateMutability": "view",
      "type": "function"
    },
    {
      "constant": true,
      "inputs": [],
      "name": "latenessMultiplierNum",
      "outputs": [
        {
          "name": "",
          "type": "uint256"
        }
      ],
      "payable": false,
      "stateMutability": "view",
      "type": "function"
    },
    {
      "constant": true,
      "inputs": [
        {
          "name": "",
          "type": "address"
        }
      ],
      "name": "loanStatus",
      "outputs": [
        {
          "name": "",
          "type": "uint8"
        }
      ],
      "payable": false,
      "stateMutability": "view",
      "type": "function"
    },
    {
      "constant": true,
      "inputs": [],
      "name": "latenessMultiplierDenom",
      "outputs": [
        {
          "name": "",
          "type": "uint256"
        }
      ],
      "payable": false,
      "stateMutability": "view",
      "type": "function"
    },
    {
      "inputs": [
        {
          "name": "_tokenContractAddr",
          "type": "address"
        }
      ],
      "payable": false,
      "stateMutability": "nonpayable",
      "type": "constructor"
    },
    {
      "payable": true,
      "stateMutability": "payable",
      "type": "fallback"
    },
    {
      "anonymous": false,
      "inputs": [
        {
          "indexed": true,
          "name": "_address",
          "type": "address"
        },
        {
          "indexed": false,
          "name": "to",
          "type": "uint8"
        },
        {
          "indexed": false,
          "name": "isNormal",
          "type": "bool"
        }
      ],
      "name": "LoanStatusChange",
      "type": "event"
    },
    {
      "constant": false,
      "inputs": [
        {
          "name": "_value",
          "type": "uint256"
        },
        {
          "name": "_term",
          "type": "uint256"
        }
      ],
      "name": "proposeLoan",
      "outputs": [],
      "payable": false,
      "stateMutability": "nonpayable",
      "type": "function"
    },
    {
      "constant": false,
      "inputs": [],
      "name": "cancelProposal",
      "outputs": [],
      "payable": false,
      "stateMutability": "nonpayable",
      "type": "function"
    },
    {
      "constant": false,
      "inputs": [
        {
          "name": "_candidate",
          "type": "address"
        }
      ],
      "name": "liquidateLoan",
      "outputs": [],
      "payable": true,
      "stateMutability": "payable",
      "type": "function"
    },
    {
      "constant": false,
      "inputs": [],
      "name": "returnLoan",
      "outputs": [],
      "payable": true,
      "stateMutability": "payable",
      "type": "function"
    },
    {
      "constant": false,
      "inputs": [
        {
          "name": "_candidate",
          "type": "address"
        }
      ],
      "name": "cancelLoanOf",
      "outputs": [],
      "payable": false,
      "stateMutability": "nonpayable",
      "type": "function"
    },
    {
      "constant": false,
      "inputs": [
        {
          "name": "_value",
          "type": "uint256"
        }
      ],
      "name": "setInterestRateNum",
      "outputs": [],
      "payable": false,
      "stateMutability": "nonpayable",
      "type": "function"
    },
    {
      "constant": false,
      "inputs": [
        {
          "name": "_value",
          "type": "uint256"
        }
      ],
      "name": "setInterestRateDenom",
      "outputs": [],
      "payable": false,
      "stateMutability": "nonpayable",
      "type": "function"
    },
    {
      "constant": false,
      "inputs": [
        {
          "name": "_value",
          "type": "uint256"
        }
      ],
      "name": "setLatenessMultiplierNum",
      "outputs": [],
      "payable": false,
      "stateMutability": "nonpayable",
      "type": "function"
    },
    {
      "constant": false,
      "inputs": [
        {
          "name": "_value",
          "type": "uint256"
        }
      ],
      "name": "setLatenessMultiplierDenom",
      "outputs": [],
      "payable": false,
      "stateMutability": "nonpayable",
      "type": "function"
    },
    {
      "constant": false,
      "inputs": [
        {
          "name": "_value",
          "type": "uint256"
        }
      ],
      "name": "withdraw",
      "outputs": [],
      "payable": false,
      "stateMutability": "nonpayable",
      "type": "function"
    },
    {
      "constant": false,
      "inputs": [
        {
          "name": "_address",
          "type": "address"
        }
      ],
      "name": "setStakeContractAddr",
      "outputs": [],
      "payable": false,
      "stateMutability": "nonpayable",
      "type": "function"
    }
  ],
  "bytecode": "0x608060405234801561001057600080fd5b50604051602080611ac88339810180604052602081101561003057600080fd5b8101908080519060200190929190505050336000806101000a81548173ffffffffffffffffffffffffffffffffffffffff021916908373ffffffffffffffffffffffffffffffffffffffff16021790555080600260006101000a81548173ffffffffffffffffffffffffffffffffffffffff021916908373ffffffffffffffffffffffffffffffffffffffff160217905550600260009054906101000a900473ffffffffffffffffffffffffffffffffffffffff1673ffffffffffffffffffffffffffffffffffffffff1663aa3e6a83306040518263ffffffff1660e01b8152600401808273ffffffffffffffffffffffffffffffffffffffff1673ffffffffffffffffffffffffffffffffffffffff168152602001915050600060405180830381600087803b15801561016357600080fd5b505af1158015610177573d6000803e3d6000fd5b5050505060016003819055506103e86004819055506001600581905550621275006006819055505061191a806101ae6000396000f3fe6080604052600436106101145760003560e01c806387bafecb116100a0578063bae88d5b11610064578063bae88d5b14610491578063bbdfa00e146104e2578063cb219b8214610526578063ed96350414610561578063fbbf4d8f1461059c57610114565b806387bafecb1461036057806389d38e611461038b5780639070577f146103dc578063958e092a146103f3578063b8949f2c1461046657610114565b806324904620116100e757806324904620146102365780632e1a7d4d1461029b57806342598579146102d65780636dde41d51461031b57806372dde3fe1461035657610114565b80630bb40bbd1461011657806312a005811461017b57806312e6624a146101a6578063191beee51461020b575b005b34801561012257600080fd5b506101656004803603602081101561013957600080fd5b81019080803573ffffffffffffffffffffffffffffffffffffffff1690602001909291905050506105d7565b6040518082815260200191505060405180910390f35b34801561018757600080fd5b506101906105ef565b6040518082815260200191505060405180910390f35b3480156101b257600080fd5b506101f5600480360360208110156101c957600080fd5b81019080803573ffffffffffffffffffffffffffffffffffffffff1690602001909291905050506105f5565b6040518082815260200191505060405180910390f35b34801561021757600080fd5b5061022061060d565b6040518082815260200191505060405180910390f35b34801561024257600080fd5b506102856004803603602081101561025957600080fd5b81019080803573ffffffffffffffffffffffffffffffffffffffff169060200190929190505050610613565b6040518082815260200191505060405180910390f35b3480156102a757600080fd5b506102d4600480360360208110156102be57600080fd5b810190808035906020019092919050505061062b565b005b3480156102e257600080fd5b50610319600480360360408110156102f957600080fd5b810190808035906020019092919080359060200190929190505050610758565b005b34801561032757600080fd5b506103546004803603602081101561033e57600080fd5b8101908080359060200190929190505050610969565b005b61035e610a35565b005b34801561036c57600080fd5b50610375610e57565b6040518082815260200191505060405180910390f35b34801561039757600080fd5b506103da600480360360208110156103ae57600080fd5b81019080803573ffffffffffffffffffffffffffffffffffffffff169060200190929190505050610e5d565b005b3480156103e857600080fd5b506103f161104f565b005b3480156103ff57600080fd5b506104426004803603602081101561041657600080fd5b81019080803573ffffffffffffffffffffffffffffffffffffffff16906020019092919050505061117f565b6040518082600281111561045257fe5b60ff16815260200191505060405180910390f35b34801561047257600080fd5b5061047b61119f565b6040518082815260200191505060405180910390f35b34801561049d57600080fd5b506104e0600480360360208110156104b457600080fd5b81019080803573ffffffffffffffffffffffffffffffffffffffff1690602001909291905050506111a5565b005b610524600480360360208110156104f857600080fd5b81019080803573ffffffffffffffffffffffffffffffffffffffff1690602001909291905050506112ad565b005b34801561053257600080fd5b5061055f6004803603602081101561054957600080fd5b8101908080359060200190929190505050611508565b005b34801561056d57600080fd5b5061059a6004803603602081101561058457600080fd5b81019080803590602001909291905050506115d4565b005b3480156105a857600080fd5b506105d5600480360360208110156105bf57600080fd5b81019080803590602001909291905050506116a0565b005b60096020528060005260406000206000915090505481565b60035481565b600a6020528060005260406000206000915090505481565b60045481565b60086020528060005260406000206000915090505481565b6000809054906101000a900473ffffffffffffffffffffffffffffffffffffffff1673ffffffffffffffffffffffffffffffffffffffff163373ffffffffffffffffffffffffffffffffffffffff16146106ed576040517f08c379a00000000000000000000000000000000000000000000000000000000081526004018080602001828103825260158152602001807f596f75277265206e6f7420617574686f72697a6564000000000000000000000081525060200191505060405180910390fd5b6000809054906101000a900473ffffffffffffffffffffffffffffffffffffffff1673ffffffffffffffffffffffffffffffffffffffff166108fc829081150290604051600060405180830381858888f19350505050158015610754573d6000803e3d6000fd5b5050565b6000600281111561076557fe5b600760003373ffffffffffffffffffffffffffffffffffffffff1673ffffffffffffffffffffffffffffffffffffffff16815260200190815260200160002060009054906101000a900460ff1660028111156107bd57fe5b14610813576040517f08c379a00000000000000000000000000000000000000000000000000000000081526004018080602001828103825260238152602001806118a96023913960400191505060405180910390fd5b81600860003373ffffffffffffffffffffffffffffffffffffffff1673ffffffffffffffffffffffffffffffffffffffff1681526020019081526020016000208190555080600960003373ffffffffffffffffffffffffffffffffffffffff1673ffffffffffffffffffffffffffffffffffffffff168152602001908152602001600020819055506001600760003373ffffffffffffffffffffffffffffffffffffffff1673ffffffffffffffffffffffffffffffffffffffff16815260200190815260200160002060006101000a81548160ff021916908360028111156108f757fe5b02179055503373ffffffffffffffffffffffffffffffffffffffff167ffe46177cb529b1e2be32a66eb454484913803c5eb2cf39652d8c07088884a7e36001806040518083600281111561094757fe5b60ff168152602001821515151581526020019250505060405180910390a25050565b6000809054906101000a900473ffffffffffffffffffffffffffffffffffffffff1673ffffffffffffffffffffffffffffffffffffffff163373ffffffffffffffffffffffffffffffffffffffff1614610a2b576040517f08c379a00000000000000000000000000000000000000000000000000000000081526004018080602001828103825260158152602001807f596f75277265206e6f7420617574686f72697a6564000000000000000000000081525060200191505060405180910390fd5b8060058190555050565b600280811115610a4157fe5b600760003373ffffffffffffffffffffffffffffffffffffffff1673ffffffffffffffffffffffffffffffffffffffff16815260200190815260200160002060009054906101000a900460ff166002811115610a9957fe5b14610b0c576040517f08c379a000000000000000000000000000000000000000000000000000000000815260040180806020018281038252601d8152602001807f596f7520646f6e2774206861766520616e20616374697665206c6f616e00000081525060200191505060405180910390fd5b600060035490506000600960003373ffffffffffffffffffffffffffffffffffffffff1673ffffffffffffffffffffffffffffffffffffffff16815260200190815260200160002054600a60003373ffffffffffffffffffffffffffffffffffffffff1673ffffffffffffffffffffffffffffffffffffffff1681526020019081526020016000205401905080421115610bbf57600081420390506006548382600554020281610bb857fe5b0483019250505b6000600454600860003373ffffffffffffffffffffffffffffffffffffffff1673ffffffffffffffffffffffffffffffffffffffff16815260200190815260200160002054840281610c0d57fe5b04905080600860003373ffffffffffffffffffffffffffffffffffffffff1673ffffffffffffffffffffffffffffffffffffffff16815260200190815260200160002054013410610cc6576040517f08c379a00000000000000000000000000000000000000000000000000000000081526004018080602001828103825260138152602001807f496e73756666696369656e7420616d6f756e740000000000000000000000000081525060200191505060405180910390fd5b610ccf3361176c565b3373ffffffffffffffffffffffffffffffffffffffff167ffe46177cb529b1e2be32a66eb454484913803c5eb2cf39652d8c07088884a7e36000600160405180836002811115610d1b57fe5b60ff168152602001821515151581526020019250505060405180910390a2600260009054906101000a900473ffffffffffffffffffffffffffffffffffffffff1673ffffffffffffffffffffffffffffffffffffffff166323b872dd6000809054906101000a900473ffffffffffffffffffffffffffffffffffffffff1633620186a06040518463ffffffff1660e01b8152600401808473ffffffffffffffffffffffffffffffffffffffff1673ffffffffffffffffffffffffffffffffffffffff1681526020018373ffffffffffffffffffffffffffffffffffffffff1673ffffffffffffffffffffffffffffffffffffffff1681526020018281526020019350505050600060405180830381600087803b158015610e3a57600080fd5b505af1158015610e4e573d6000803e3d6000fd5b50505050505050565b60055481565b6000809054906101000a900473ffffffffffffffffffffffffffffffffffffffff1673ffffffffffffffffffffffffffffffffffffffff163373ffffffffffffffffffffffffffffffffffffffff1614610f1f576040517f08c379a00000000000000000000000000000000000000000000000000000000081526004018080602001828103825260158152602001807f596f75277265206e6f7420617574686f72697a6564000000000000000000000081525060200191505060405180910390fd5b60006002811115610f2c57fe5b600760008373ffffffffffffffffffffffffffffffffffffffff1673ffffffffffffffffffffffffffffffffffffffff16815260200190815260200160002060009054906101000a900460ff166002811115610f8457fe5b14610fda576040517f08c379a00000000000000000000000000000000000000000000000000000000081526004018080602001828103825260238152602001806118cc6023913960400191505060405180910390fd5b610fe38161176c565b8073ffffffffffffffffffffffffffffffffffffffff167ffe46177cb529b1e2be32a66eb454484913803c5eb2cf39652d8c07088884a7e36000806040518083600281111561102e57fe5b60ff168152602001821515151581526020019250505060405180910390a250565b6001600281111561105c57fe5b600760003373ffffffffffffffffffffffffffffffffffffffff1673ffffffffffffffffffffffffffffffffffffffff16815260200190815260200160002060009054906101000a900460ff1660028111156110b457fe5b1461110a576040517f08c379a00000000000000000000000000000000000000000000000000000000081526004018080602001828103825260218152602001806118886021913960400191505060405180910390fd5b6111133361176c565b3373ffffffffffffffffffffffffffffffffffffffff167ffe46177cb529b1e2be32a66eb454484913803c5eb2cf39652d8c07088884a7e3600060016040518083600281111561115f57fe5b60ff168152602001821515151581526020019250505060405180910390a2565b60076020528060005260406000206000915054906101000a900460ff1681565b60065481565b600073ffffffffffffffffffffffffffffffffffffffff16600160009054906101000a900473ffffffffffffffffffffffffffffffffffffffff1673ffffffffffffffffffffffffffffffffffffffff1614611269576040517f08c379a00000000000000000000000000000000000000000000000000000000081526004018080602001828103825260148152602001807f4164647265737320686173206265656e2073657400000000000000000000000081525060200191505060405180910390fd5b80600160006101000a81548173ffffffffffffffffffffffffffffffffffffffff021916908373ffffffffffffffffffffffffffffffffffffffff16021790555050565b600160009054906101000a900473ffffffffffffffffffffffffffffffffffffffff1673ffffffffffffffffffffffffffffffffffffffff163373ffffffffffffffffffffffffffffffffffffffff1614611370576040517f08c379a00000000000000000000000000000000000000000000000000000000081526004018080602001828103825260158152602001807f596f75277265206e6f7420617574686f72697a6564000000000000000000000081525060200191505060405180910390fd5b8073ffffffffffffffffffffffffffffffffffffffff166108fc600860008473ffffffffffffffffffffffffffffffffffffffff1673ffffffffffffffffffffffffffffffffffffffff168152602001908152602001600020549081150290604051600060405180830381858888f193505050501580156113f5573d6000803e3d6000fd5b506002600760008373ffffffffffffffffffffffffffffffffffffffff1673ffffffffffffffffffffffffffffffffffffffff16815260200190815260200160002060006101000a81548160ff0219169083600281111561145257fe5b021790555042600a60008373ffffffffffffffffffffffffffffffffffffffff1673ffffffffffffffffffffffffffffffffffffffff168152602001908152602001600020819055508073ffffffffffffffffffffffffffffffffffffffff167ffe46177cb529b1e2be32a66eb454484913803c5eb2cf39652d8c07088884a7e360026001604051808360028111156114e757fe5b60ff168152602001821515151581526020019250505060405180910390a250565b6000809054906101000a900473ffffffffffffffffffffffffffffffffffffffff1673ffffffffffffffffffffffffffffffffffffffff163373ffffffffffffffffffffffffffffffffffffffff16146115ca576040517f08c379a00000000000000000000000000000000000000000000000000000000081526004018080602001828103825260158152602001807f596f75277265206e6f7420617574686f72697a6564000000000000000000000081525060200191505060405180910390fd5b8060068190555050565b6000809054906101000a900473ffffffffffffffffffffffffffffffffffffffff1673ffffffffffffffffffffffffffffffffffffffff163373ffffffffffffffffffffffffffffffffffffffff1614611696576040517f08c379a00000000000000000000000000000000000000000000000000000000081526004018080602001828103825260158152602001807f596f75277265206e6f7420617574686f72697a6564000000000000000000000081525060200191505060405180910390fd5b8060048190555050565b6000809054906101000a900473ffffffffffffffffffffffffffffffffffffffff1673ffffffffffffffffffffffffffffffffffffffff163373ffffffffffffffffffffffffffffffffffffffff1614611762576040517f08c379a00000000000000000000000000000000000000000000000000000000081526004018080602001828103825260158152602001807f596f75277265206e6f7420617574686f72697a6564000000000000000000000081525060200191505060405180910390fd5b8060038190555050565b600860008273ffffffffffffffffffffffffffffffffffffffff1673ffffffffffffffffffffffffffffffffffffffff16815260200190815260200160002060009055600760008273ffffffffffffffffffffffffffffffffffffffff1673ffffffffffffffffffffffffffffffffffffffff16815260200190815260200160002060006101000a81549060ff0219169055600960008273ffffffffffffffffffffffffffffffffffffffff1673ffffffffffffffffffffffffffffffffffffffff16815260200190815260200160002060009055600a60008273ffffffffffffffffffffffffffffffffffffffff1673ffffffffffffffffffffffffffffffffffffffff168152602001908152602001600020600090555056fe596f7520646f6e2774206861766520616e206163746976652070726f706f73616c596f7520616c7265616479206861766520616e206163746976652070726f706f73616c5f63616e64696461746520646f65736e2774206861766520616374697665206c6f616ea165627a7a7230582099d9af4e145c0686bf48235db3213cf3fa5aa89d47a110d86817d0f07fee649f0029",
  "source": "pragma solidity >=0.4.25 <0.6.0;\n\nimport './TrstToken.sol';\n\n/**\n@author Senapati Sang Diwangkara, from Affluent team\n\n@title The Credit Vault Contract\n\nVault is a contract that handles the credit proposal, liquidation, and settlement.\n\nAmong the 3 contracts, this contract must be deployed second, because it depends on the\ntoken contract but the staking contract depended on it.\n\n*/\ncontract Vault {\n\taddress payable root;\n\taddress stakeContractAddr;\n\tTrstToken tokenContract;\n\n\tuint public interestRateNum;\n\tuint public interestRateDenom;\n\t// interestRate = interestRateNum / interestRateDenom\n\tuint public latenessMultiplierNum;\n\tuint public latenessMultiplierDenom;\n\t// additional rate if late:\n\t// interestRate += latenessMultiplier * late (seconds) * interestRate\n\n\tenum LoanStatus {IDLE, PROPOSED, LENT}\n\tmapping (address => LoanStatus) public loanStatus;\n\tmapping (address => uint) public proposedLoan; // in Wei\n\tmapping (address => uint) public term; // promised duration to return the ETH, in seconds\n\tmapping (address => uint) public lentTimestamp; // UNIX timestamp when the proposal is granted\n\t// TODO: change to block number?\n\n\n\n\tconstructor(address payable _tokenContractAddr) public {\n\t\troot = msg.sender;\n\t\ttokenContract = TrstToken(_tokenContractAddr);\n\t\ttokenContract.setVaultContractAddr(address(this));\n\n\t\tinterestRateNum = 1;\n\t\tinterestRateDenom = 1e3; // 0.1%\n\t\tlatenessMultiplierNum = 1;\n\t\tlatenessMultiplierDenom = 1209600; // 2 weeks\n\t}\n\n\n\n\t// *** Modifiers ***\n\tmodifier onlyRoot() {\n\t\trequire(msg.sender == root, \"You're not authorized\");\n\t\t_;\n\t}\n\n\tmodifier onlyStakeContract() {\n\t\trequire(msg.sender == stakeContractAddr, \"You're not authorized\");\n\t\t_;\n\t}\n\n\n\n\t// *** Events ***\n\tevent LoanStatusChange(address indexed _address, LoanStatus to, bool isNormal);\n\n\n\n\t// *** Operation Methods ***\n\t/**\n\t* @dev Proposes a loan to the Clint system. Each address can only have 1 active lending\n\t*   process at a time\n\t* @param _value The amount of money to be lent\n\t* @param _term The promised duration to return the money (in seconds)\n\t*/\n\tfunction proposeLoan(uint _value, uint _term) external {\n\t\trequire(loanStatus[msg.sender] == LoanStatus.IDLE, \"You already have an active proposal\");\n\t\t// TODO: check _value?\n\n\t\tproposedLoan[msg.sender] = _value;\n\t\tterm[msg.sender] = _term;\n\t\tloanStatus[msg.sender] = LoanStatus.PROPOSED;\n\n\t\temit LoanStatusChange(msg.sender, LoanStatus.PROPOSED, true);\n\t}\n\n\t/**\n\t* @dev Cancel a loan proposal. The sender must be in the PROPOSED state, i.e. have a\n\t*   proposed loan but not yet granted\n\t*/\n\tfunction cancelProposal() external {\n\t\trequire(loanStatus[msg.sender] == LoanStatus.PROPOSED, \"You don't have an active proposal\");\n\n\t\t_cancelLoan(msg.sender);\n\n\t\temit LoanStatusChange(msg.sender, LoanStatus.IDLE, true);\n\t}\n\n\t/**\n\t* @dev Grant a loan to a proposer. Can only be called by stake contract\n\t* @param _candidate The proposer's address\n\t*/\n\tfunction liquidateLoan(address payable _candidate) external onlyStakeContract payable {\n\t\t// send ether from root to _candidate\n\t\t_candidate.transfer(proposedLoan[_candidate]);\n\n\t\t// change loanStatus and lentTimestamp\n\t\tloanStatus[_candidate] = LoanStatus.LENT;\n\t\tlentTimestamp[_candidate] = block.timestamp;\n\n\t\temit LoanStatusChange(_candidate, LoanStatus.LENT, true);\n\t}\n\n\t/**\n\t* @dev Return a loan to the Clint system. If the paid amount exceeds what is stated, the\n\t*   excess will be kept by the contract\n\t*/\n\tfunction returnLoan() external payable {\n\t\trequire(loanStatus[msg.sender] == LoanStatus.LENT, \"You don't have an active loan\");\n\n\t\tuint effRateNum = interestRateNum;\n\t\t// add interest if it's late\n\t\tuint deadlineTimestamp = lentTimestamp[msg.sender] + term[msg.sender];\n\t\tif (block.timestamp > deadlineTimestamp) {\n\t\t\tuint lateness = block.timestamp - deadlineTimestamp;\n\t\t\teffRateNum += latenessMultiplierNum * lateness * effRateNum / latenessMultiplierDenom;\n\t\t}\n\t\tuint interest = effRateNum * proposedLoan[msg.sender] / interestRateDenom;\n\t\trequire(msg.value < proposedLoan[msg.sender] + interest, \"Insufficient amount\");\n\n\t\t// receive eth is done at the background\n\t\t_cancelLoan(msg.sender);\n\t\temit LoanStatusChange(msg.sender, LoanStatus.IDLE, true);\n\n\t\t// Give Token incentive\n\t\ttokenContract.transferFrom(root, msg.sender, 100000); // TODO: change incentive mechanics\n\t}\n\n\n\n\t// *** Administrative Methods ***\n\t/**\n\t* @dev Manually cancels the loan process of a proposer. Can only be called by root\n\t* @param _candidate The proposer's address\n\t*/\n\tfunction cancelLoanOf(address _candidate) external onlyRoot {\n\t\trequire(loanStatus[_candidate] == LoanStatus.IDLE, \"_candidate doesn't have active loan\");\n\t\t_cancelLoan(_candidate);\n\n\t\temit LoanStatusChange(_candidate, LoanStatus.IDLE, false);\n\t}\n\n\t/**\n\t* @dev Set the interest rate's numerator. Can only be called by root\n\t* @param _value New interestRateNum value\n\t*/\n\tfunction setInterestRateNum(uint _value) external onlyRoot {\n\t\tinterestRateNum = _value;\n\t}\n\n\t/**\n\t* @dev Set the interest rate's denominator. Can only be called by root\n\t* @param _value New interestRateDenom value\n\t*/\n\tfunction setInterestRateDenom(uint _value) external onlyRoot {\n\t\tinterestRateDenom = _value;\n\t}\n\n\t/**\n\t* @dev Set the lateness rate's numerator. Can only be called by root\n\t* @param _value New latenessMultiplierNum value\n\t*/\n\tfunction setLatenessMultiplierNum(uint _value) external onlyRoot {\n\t\tlatenessMultiplierNum = _value;\n\t}\n\n\t/**\n\t* @dev Set the lateness rate's denominator. Can only be called by root\n\t* @param _value New latenessMultiplierDenom value\n\t*/\n\tfunction setLatenessMultiplierDenom(uint _value) external onlyRoot {\n\t\tlatenessMultiplierDenom = _value;\n\t}\n\n\t/**\n\t* @dev Fallback function. Used to deposit ETH to the contract\n\t*/\n\tfunction() external payable {}\n\n\t/**\n\t* @dev Withdraw ETH from the contract into root's account. Can only be called by root\n\t* @param _value Withdrawal amount\n\t*/\n\tfunction withdraw(uint _value) external onlyRoot {\n\t\troot.transfer(_value);\n\t}\n\n\t/**\n\t* @dev Set the stake contract's address. Can only be called once\n\t* @param _address stake contract's address\n\t*/\n\tfunction setStakeContractAddr(address _address) external {\n\t\trequire(stakeContractAddr == address(0), \"Address has been set\");\n\t\tstakeContractAddr = _address;\n\t}\n\n\n\n\t// *** Private Methods ***\n\t/**\n\t* @dev A private method to clear the state of a loan proposer\n\t* @param _candidate The proposer's address\n\t*/\n\tfunction _cancelLoan(address _candidate) private {\n\t\tdelete proposedLoan[_candidate];\n\t\tdelete loanStatus[_candidate];\n\t\tdelete term[_candidate];\n\t\tdelete lentTimestamp[_candidate];\n\t}\n}\n",
  "sourcePath": "/Users/hafizhbudiman/Documents/Competitions/Finhacks/code/clint-dapp/contracts/Vault.sol",
  "compiler": {
    "name": "solc",
    "version": "0.5.8+commit.23d335f2.Emscripten.clang"
  },
  "schemaVersion": "3.0.17",
  "updatedAt": "2019-11-12T08:52:46.993Z",
  "networkType": "ethereum",
  "devdoc": {
    "author": "Senapati Sang Diwangkara, from Affluent team",
    "methods": {
      "cancelLoanOf(address)": {
        "details": "Manually cancels the loan process of a proposer. Can only be called by root",
        "params": {
          "_candidate": "The proposer's address"
        }
      },
      "cancelProposal()": {
        "details": "Cancel a loan proposal. The sender must be in the PROPOSED state, i.e. have a  proposed loan but not yet granted"
      },
      "liquidateLoan(address)": {
        "details": "Grant a loan to a proposer. Can only be called by stake contract",
        "params": {
          "_candidate": "The proposer's address"
        }
      },
      "proposeLoan(uint256,uint256)": {
        "details": "Proposes a loan to the Clint system. Each address can only have 1 active lending  process at a time",
        "params": {
          "_term": "The promised duration to return the money (in seconds)",
          "_value": "The amount of money to be lent"
        }
      },
      "returnLoan()": {
        "details": "Return a loan to the Clint system. If the paid amount exceeds what is stated, the  excess will be kept by the contract"
      },
      "setInterestRateDenom(uint256)": {
        "details": "Set the interest rate's denominator. Can only be called by root",
        "params": {
          "_value": "New interestRateDenom value"
        }
      },
      "setInterestRateNum(uint256)": {
        "details": "Set the interest rate's numerator. Can only be called by root",
        "params": {
          "_value": "New interestRateNum value"
        }
      },
      "setLatenessMultiplierDenom(uint256)": {
        "details": "Set the lateness rate's denominator. Can only be called by root",
        "params": {
          "_value": "New latenessMultiplierDenom value"
        }
      },
      "setLatenessMultiplierNum(uint256)": {
        "details": "Set the lateness rate's numerator. Can only be called by root",
        "params": {
          "_value": "New latenessMultiplierNum value"
        }
      },
      "setStakeContractAddr(address)": {
        "details": "Set the stake contract's address. Can only be called once",
        "params": {
          "_address": "stake contract's address"
        }
      },
      "withdraw(uint256)": {
        "details": "Withdraw ETH from the contract into root's account. Can only be called by root",
        "params": {
          "_value": "Withdrawal amount"
        }
      }
    },
    "title": "The Credit Vault Contract Vault is a contract that handles the credit proposal, liquidation, and settlement. Among the 3 contracts, this contract must be deployed second, because it depends on the token contract but the staking contract depended on it."
  },
  "userdoc": {
    "methods": {}
  }
}